:03000000020030CB
:09002300E599C298D293119832BC
:10003000C293114F116A1181758920758DF9758BE5
:10004000F9438780759850D28ED2ACD2AF80FEC271
:1000500097C296D295C29411BF11C411BFD297C254
:1000600096C295C29411BF11C422C297C296C2957E
:10007000C29411BFD297D296D295D29411BF11C417
:1000800022C297C296C295C29411BFC297D296D28D
:1000900095C29411BF11C422A2E79297A2E692964C
:1000A000A2E59295A2E4929411BFA2E39297A2E2F4
:1000B0009296A2E19295A2E0929411BF11C422D22D
:0900C00092C292227832D8FE228D
:00000001FF