:090AB500010C0004083132333455
:10096D00C293E4F50C120A45120A88120A97D29323
:10097D007F53120A5A7F65120A5A7F6E120A5A7FE6
:10098D0068120A5A7F61120A5A7F3A120A5A1208DD
:10099D0000D2937F2A120A5AE50CB404F1120A22EE
:0209AD0080FECA
:100A2200E4F51174082511F8E6FF740D2511F8E6B6
:100A32006F60030209AF0511E511C3940440E4128B
:020A420009F0B9
:010A4400228F
:1009F000120ABFD2937F42120A5A7F45120A5A7FC7
:100A00004D120A5A7F20120A5A7F56120A5A7F49FB
:100A1000120A5A7F4E120A5A7F44120A5A7F4F0214
:020A20000A5A70
:1009AF00120ABFD2937F53120A5A7F45120A5A7FF7
:1009BF004E120A5A7F48120A5A7F41120A5A7F2052
:1009CF00120A5A7F45120A5A7F52120A5A7F52123E
:1009DF000A5A7F41120A5A7F44120A5A7F41020A69
:0109EF005AAD
:070ABF00C2937FC0020A5A36
:100A5A008F12E512120A6AE512C4120A6A020A79A8
:0A0A6A0054F0FFE590540F4FF59093
:050A7400D292C29222A3
:0E0A7900E4FFFE0FBF00010EBE01F8BFF4F552
:010A8700224C
:100A4500759020120A74120A79120A747590801230
:050A55000A74020A7999
:0F0A8800E4F590120A747590F0120A74020A795C
:0F0A9700E4F590120A74759060120A74020A79DD
:100800007580F7E58020E40DAF0C050C740D2FF812
:1008100076330208DDE58020E50DAF0C050C740D84
:100820002FF876320208DDE58020E60DAF0C050CCE
:10083000740D2FF876310208DD7580FBE58020E429
:100840000DAF0C050C740D2FF876360208DDE5802F
:1008500020E50CAF0C050C740D2FF87635807EE585
:100860008020E60CAF0C050C740D2FF87634806DEB
:100870007580FDE58020E40CAF0C050C740D2FF89D
:1008800076398059E58020E50CAF0C050C740D2FEE
:10089000F876388048E58020E60CAF0C050C740D26
:1008A0002FF8763780377580FEE58020E40CAF0C9A
:1008B000050C740D2FF876238023E58020E50CAF1E
:1008C0000C050C740D2FF876308012E58030E603AD
:1008D000020800AF0C050C740D2FF8762A120AA638
:0108E00022F5
:0E0AA600E4FFFE0FBF00010EBE79F8BF18F589
:010AB400221F
:030000000208E112
:0C08E100787FE4F6D8FD7581120209282A
:1008ED0002096DE493A3F8E493A34003F68001F2AB
:1008FD0008DFF48029E493A3F85407240CC8C3330C
:10090D00C4540F4420C8834004F456800146F6DFDA
:10091D00E4800B0102040810204080900AB5E47EAB
:10092D00019360BCA3FF543F30E509541FFEE493CF
:10093D00A360010ECF54C025E060A840B8E493A396
:10094D00FAE493A3F8E493A3C8C582C8CAC583CAC1
:10095D00F0A3C8C582C8CAC583CADFE9DEE780BE79
:010ABE000037
:00000001FF
